:1000000000000000000000001720000000000000B9
:1000100083360C20BE190F20833EBE19833A031786
:10002000833EAE190411AF190A11B01972251820B8
:100030008318E8257B2E0904833E111B3C040335FD
:10004000101B03342620A118A1132D200904111B15
:1000500053040335101B0334A118211103358F20DD
:100060000004353F632F833E8C299B29A018A218DA
:100070008820833A9C189D18C118833E353145204D
:10008000833AC118C113833E353D833AC018C0136B
:10009000833EA33023354E20833AC018833A401163
:1000A000C219421103355920251103315920C118B5
:1000B000C1134211A519411103356720E02B833E7E
:1000C0003538833A9A189B18833E1D114C2F833E76
:1000D00035307820833A9A1303359B1313041B1B86
:1000E000880403351A1B833E033079209B298C2911
:1000F000833E2211000403358920A218632F833E1A
:100100008C29A01888209C1303359D13833E8C29CD
:100110000004833E9229833E9418951802003533DB
:1001200039200304833A1D1BE80403351C1B0330EC
:100130008320833E35369E20B531BA200104A218B3
:10014000A213632F833E353C20110331A920010403
:100150004C2F2331B120833A33110331B1200504F0
:10016000E32F833EA33088201E110331882005042D
:10017000E32F882022110331C3200104A218A21307
:10018000632F01044C2F20110335CC200004922949
:10019000833E961897188B2023310721941303353B
:1001A0009513F404141F0335151A0335F32058046E
:1001B000141F02040335151F0335F320BC04141F5C
:1001C00002040335151F0335F3202004141F030414
:1001D0000335151F0335F3208404141F030403356E
:1001E000151F033132210504221B0334FE20A21304
:1001F0002211632F833E22114C2F32210504221F2E
:10020000033132210604A2190604632F3221833AF6
:10021000331103352F210604833E221F033117219A
:100220000504A2190504632F05044C2F2F21010496
:10023000151BF4040335141B03342F210504221B62
:1002400003342921A2132211632F833E22114C2F44
:100250002F210504221F03312F210104E32F833EA8
:10026000941895180004833E23350104833AB3198A
:10027000833EA3306B21961303359713F404161FA6
:100280000335171A033560215804161F020403357D
:10029000171F03356021BC04161F02040335171F06
:1002A000033560212004161F03040335171F03358F
:1002B00060218404161F03040335171F03318721AF
:1002C0000204221B03308721A21A2211632F833ECE
:1002D00022114C2F87211E11033584210104171B85
:1002E000F4040335161B033484210204221B03305B
:1002F0008021A21A2211632F833E22114C2F8421C8
:10030000221284210504E32F833E961897180004D7
:10031000A33401049E19020086380638853B053B4C
:10032000053A0200A33401049E1900042335010498
:10033000833AB3190200353C833A9A189B18833EDE
:10034000020098130335991325110335C321833A0D
:100350009E1303359F131E1A1F1D0331B221833EC6
:10036000463F063B0304833A1F1BE80403351E1B6C
:1003700003300200833E063F463BC304F82AA81818
:10038000833AB719020028110331E922833AB713DF
:10039000833E0637F0210304833A211BE80403352A
:1003A000201B0334D621A0130335A1130304211B02
:1003B000E8040335201B0330F321E804A0190304EB
:1003C000A119833E25110331F32135333536EA2156
:1003D000B531F321A518A513833A9E189F18F32170
:1003E000833AA018A118C804833A371B03300200CF
:1003F000B718381103310B22772F833ABB19833E8C
:10040000A71898189918833AB518833E463F063BBB
:10041000A818A8130200B918833EA71898189918AD
:10042000A618463F063B0504A81902000004191B44
:1004300014040335181B0330232298189918063F1B
:100440000204A8190200063B02000004191B0A045A
:100450000335181B0330020098189918833A3B1192
:10046000BA19833EA718063B0304A819020000042A
:10047000191B0E040335181B03304F22080498186B
:100480009918A713271B03304B22063F0404A81911
:10049000833AB7180200833A033CBA140200833A45
:1004A000BA335C220004833E191B0B040335181B6E
:1004B00003302322063F02000004833E191B05047B
:1004C00056220004191B14040335181B03300200C4
:1004D000063F463B833AB518B513B818B813833EA8
:1004E00098189918A81802000004191B280403354D
:1004F000181B0330232298189918063F0604A819E0
:1005000002000004191B0A040335181B0330020003
:1005100098189918833AA418833EA718833AB618F6
:10052000833E463B063F0904A81902002711033108
:100530009D22833A24110335A2223C04833EAC1948
:10054000AD18A7229004833EAC190104AD192D11FA
:10055000191B0331AD222C11181B0330B422FF04E8
:10056000A619002BA8180200833A2411833E0331F8
:10057000C1220633020098189918833AA418A413CC
:100580000200063702000004833A033CB614833E9F
:10059000191B07040335181B833A03343638080443
:1005A000833AA418833EA713271B03300200833A23
:1005B0003611B9190A04833EA618A613002BA819F0
:1005C00002000004191B0A040335181B0330020043
:1005D0006F222811FF080330B22284190A04041B79
:1005E0000334B22207048A19F004041E821902009F
:1005F000A518833A9E189F18A018A118833E0200E0
:10060000833AB818833E98189918020021110335CF
:100610000B238C2902001A111D1F03351C23030410
:10062000833A2F1B0330AF1303042F1B833E033089
:100630001F231D119A191E23833AAF18833E3536A6
:100640002323B5319C2335379C233204833AB013DE
:10065000301B03304223B0184911033539231404E9
:10066000833E1B1B033436239B134223833AC91852
:100670004223833E1B1103353F239B1A4223833AB7
:10068000C918C9131404833E9C131C1B03349C1803
:10069000B5315123AD2D14049B19833AC918B018F4
:1006A000020002041A1B03305723053E5E231A1270
:1006B0005D231B111C1B03305523053A03041A1B31
:1006C00003306423053F6D2302041A1F03316C239A
:1006D0001B111C1B03306223053B04041A1B03304F
:1006E0007323853F7C2303041A1F03317B231B11D3
:1006F0001C1B03307123853B05041A1B0330822326
:10070000063C8B2304041A1F03318A231B111C1B74
:1007100003308023063806041A1B033494239623DF
:100720001B111C1B03349A23863C020005041A1F6C
:1007300003359023863802003533C4230604221F74
:100740000331C4231404833AB013301B0330020076
:10075000B01849110335B6233204833E1B1B033402
:10076000B3239B13BF23833AC918BF23833E1B11B6
:100770000335BC239B1ABF23833AC918C913833E90
:100780001B11833AB11902003532B535D223060464
:10079000221F0335D2239B18833AC918C913B018F6
:1007A000833E9C1835333530D7231D114C27353304
:1007B000DC232011033102003533092322114C2799
:1007C000B32D3211B4193111B319833A2C110331FD
:1007D000F223833E3411833AB12C833EA92C901826
:1007E00091180C241511833E341B0331FB23833AEB
:1007F0001411833E331B3411833A03340124B12C8A
:100800000C24131B833E033109243311833A121B3A
:10081000833E03340D24A92C833E3311833A901E6A
:1008200003349113833E3411833A911E0A04AC13AE
:100830002C1B03300200AC181411901B151103304F
:10084000911A911B1211901B13110330911A911BD5
:10085000033C91159015033C91159015033C91159F
:1008600090151111833E9119833A1011833E90190E
:10087000B5313C24060472240904111B3B040335E2
:10088000101B033445249D1873240904111BF00424
:100890000335101B03344F249D189D1373240B0440
:1008A000111B62040335101B033458240204722404
:1008B0000C04111B00040335101B033461240304D2
:1008C00072240C04111B9D040335101B03346A248D
:1008D000040472240C04111BED040335101B0334B3
:1008E0003A2405049D19833A481103357B24C81A1C
:1008F000833EB53E0200833EB5369F240904111B9A
:10090000D9040335101B03349C240504833A2E1BA1
:100910000330AE1305042E1B03300200833EB53AAC
:1009200002000304833A2D1B0330AD1303042D1B77
:1009300003300200833EB53E833AAE18020009043C
:10094000111BF0040335101B03349124833AAD18B6
:1009500002003411833A9319833E3311833A92197A
:1009600002009519833E3311833A94190200833EA5
:1009700035333535C3243532B535C3243534C32436
:1009800025110335C624833A96189718833A96138F
:10099000033597130304171BE8040335161B0330B4
:1009A000020096189718833E8C298E3F0E3CCB3C54
:1009B0004B3F8E188F18DA18DB18D618D7180E048C
:1009C000C5194804202DE804B1190304B219182FE1
:1009D0004B3DC13F0E0487194004891905110611CA
:1009E0000F3C0E3E8F388E380400000003000000DC
:1009F000833EC13B5A3806330D25B804353A833A55
:100A000098190B049919833E063308250400032521
:100A1000C304833AB719833EA518051106110F3C8C
:100A20000E3E8F3C8E3C053585303539BB2F4B2E25
:100A3000D62F4B39833A96189718833E233C0200F1
:100A4000C619F104C319FF048D19C219BF048B190B
:100A50000200833A3411833EB319F004B418B3177B
:100A6000B417B41C33110F0EB41DF004B31C3411B1
:100A7000131B03313D253311121B033449259213F7
:100A8000033593131311341B03315B251211331BF0
:100A90005B251311341B03314F251211331B033413
:100AA00061250104921B0330931A3411131B033187
:100AB0005B253311121B0334612534119319331153
:100AC00092191311B2191211B1190404033CB21591
:100AD000B115FF08033166253111CF194F110335C8
:100AE000063D02008E3180258E3DA8048119140434
:100AF000833AA313231B03308025A318833E233896
:100B0000833E353398250604221F03353536982554
:100B1000B53598253204833AA213221B0334A21858
:100B20003111221B833E03349725AD2D98258C2946
:100B3000A129833E4B3C30118A192F118419AE3400
:100B4000A6252E178319BE173E1701002E178319ED
:100B5000833EBE173E17833A0100863C063C853F24
:100B6000053F053E02001504833EDA192411DB1906
:100B70005A380F3DDA38833ABC18BD18833EDA3054
:100B8000CD250400833ABC130335BD134E043D1B31
:100B9000200403353C1B0330BE25833E5911833AA4
:100BA000BE19F004BF18BE17BF17BF1C3E110F0EB1
:100BB000BF1DF004BE1C833E58170F0E833ABE1DA6
:100BC0003F11833EB219833A3E11833EB1190200B0
:100BD0008B2FBB2FC804B119B2189C2FD62FAC2F66
:100BE0004B2EC13BA82E0004632F833E0E388E3B54
:100BF0002330F525233C0400F72E833A1811191DE4
:100C0000033509260104981B00040330991A991B27
:100C10001226833E35360E26B5311026A218A018AE
:100C2000353EB53DE02B1A2E322F1A28292D062BE2
:100C3000B72CF525833E053528260A04833AAA18E1
:100C4000AB132B1B03303226AB18833EA33832265E
:100C50000A04833AAB18AA132A1B03303226AA18B7
:100C6000833EA33C833E853440260A04833AA81879
:100C7000A913291B03300200A918833E233902005F
:100C80000A04833AA918A813281B03300200A818E5
:100C9000833E233D02008E18C1180E11833ABC1901
:100CA000BD183C383C11833E8E190E11F70E833A65
:100CB000BE19BF18833E8E190E11833AC019C11890
:100CC000C03B4011833E8E194C11833AC219C318A0
:100CD000C23A4211833ECC194111DF0E833AC41946
:100CE000C518833EC1194111EF0E833AC619C718C2
:100CF000833EC1190200833E201103350200960491
:100D0000833AB213321B033002000204B218833E4E
:100D1000B51FA01A1F129626053E053F853F063CCB
:100D2000B53094268638A326863CA32605041F1FCB
:100D30000331A32686380638853B053BB530A2260D
:100D4000053AA326053E20110331020022114C274B
:100D50008C29EC04353FB53EA218A018833AB2188E
:100D6000833E9F18B53C9B29353EB53D833A981884
:100D70009918833E9E18833AB318833E94189518A9
:100D8000353DA818833AB818833E98189918833AC5
:100D9000B718833EF82AA618833AB518833E9D18E3
:100DA00090190C0491190200833EB319B4190F0471
:100DB000B41C33170F0EB2190F04B21C3211341EBB
:100DC000B1190F0D033100010C04341F0335EC265B
:100DD0000D04341F0331EE26353AEF26353E0D045F
:100DE000341F0331F526B5390101B53D0101833AC0
:100DF0003512FB26B518833E26121427A618833A0F
:100E00003911D42E833ABC193C1103350A27C80482
:100E100098199918833E35360F27B5310200C8045A
:100E2000833A98199918020026160200A6180200A3
:100E30000104B11B00040330B21AB21B3116232780
:100E4000321303350200B318B4180000833EB31305
:100E50000335B4130004341B04040335331B03347B
:100E600018272527833E853141271404833AA61885
:100E7000A713271B03300200A718833E353F353DDB
:100E800002001404833AA718A613261B033002009D
:100E9000A618833E353B3F27833EB1198C2931117B
:100EA0000331053E0204311B0334053F0304311BAB
:100EB0000334853F0404311B0334063C0504311B15
:100EC0000334863C0200B119311103316A27833A99
:100ED000B41802000704311B033070270604B1194F
:100EE000311101088419C92F833AB4190200833ED5
:100EF000AB1885312B38353381272B39B532812713
:100F0000AB380F04AB1C2B110F0DA9192917F00ECC
:100F10002B1DAA1902003F0484198018841A0F049B
:100F2000041F03318D27DF0484198018841A8F046D
:100F3000041F033502009527B318B4183411321B6F
:100F40000331A4273311311B033002000400833E18
:100F5000B3130335B4139E27C13F4004D11968046D
:100F6000CD197B04CE19CF184504CC194B3CCC3B92
:100F7000CB3CCB180200D618D718D004851903042F
:100F800086190E04C5190804202D871889188E3C6F
:100F9000020007048A1904118413821E0001000153
:100FA0001F0132014401570169017C012004D61957
:100FB000D7181504DA190804A419DB195A3864047F
:100FC000B119B2181827833EB1192011033102005C
:100FD0000404A01931119F19B53C833AB2180200DC
:100FE000162225223722612274228122B222B222C5
:100FF0009622E12232010101000000000000000001
:00000001FF
