:1000000000000000000000001520000000000000BB
:1000100083360C20BE190F20833EBE19833A031786
:10002000833EAD190A11AE19722516208318B12529
:10003000941303359513241103354020833AA213FA
:100040000335A313221A231D03312920833E463F83
:10005000063B0304833A231BE8040335221B0330C9
:100060000200833E063F463BC304A418833AA2180D
:10007000A318A418A518833EA718833AB71902003D
:10008000271103319520833AB713833E06376F203B
:100090000304833A251BE8040335241B033453204F
:1000A000A4130335A5130304251BE8040335241BFF
:1000B00003307220E804A4190304A519833E241117
:1000C00003317220213021356920A1356920213288
:1000D0007220A418A413833AA218A3187220833A9A
:1000E000A418A518C804833A371B03300200B718B8
:1000F000381103318A20802F833ABB19833EA6181A
:1001000094189518833AB518833E463F063BA718C6
:10011000A7130200B918833EA61894189518A518BD
:10012000463F063B0504A71902002712A62000043B
:10013000151B14040335141B0330A42094189518C0
:10014000063F0204A7190200063B02000204271F13
:100150000331BC200004151B0A040335141B0330B3
:10016000020094189518833A3B11BA19833EA618D9
:10017000063B0304A71902000304271F0331EA20EA
:100180000004151B0E040335141B0330D82008048B
:1001900094189518A613261B0330D420063F040498
:1001A000A719833AB7180200833A033CBA14020035
:1001B000833ABA33E5200004833E151B0B04033554
:1001C000141B0330A420063F02000004833E151BCD
:1001D0000504DF200404271F033101210004151B3F
:1001E00014040335141B03300200063F463B833AD8
:1001F000B518B513B818B813833E94189518A718F6
:1002000002000504271F033112210004151B2804D6
:100210000335141B0330A42094189518063F0604D8
:10022000A71902000604271F03312B210004151B08
:100230000A040335141B0330020094189518833AFE
:10024000A818833EA618833AB618833E463B063F5D
:100250000904A71902000904271F03317A21261176
:1002600003313621833A281103353B213C04833E78
:10027000AB19AC1840219004833EAB190104AC19B2
:100280002C11151B033146212B11141B03304D215A
:10029000FF04A5198629A7180200833A2811833E76
:1002A00003315A210633020094189518833AA8188E
:1002B000A8130200063702000004833A033CB61478
:1002C000833E151B07040335141B833A0334363869
:1002D0000804833AA818833EA613261B03300200A5
:1002E000833A3611B9190A04833EA518A513862945
:1002F000A71902000A04271F03314B210004151B14
:100300000A040335141B03300200FC20833AB8189A
:10031000833E941895180200492E0904833E111B50
:100320003C040335101B033498219E189E139F2113
:100330000904111B53040335101B03349E181E11AE
:10034000033506220004213C6D2FD02AD62A9D18A1
:10035000A018F721833ABD18833EA232B421833A14
:10036000BD18BD13833EA23E833ABC18BC13833E26
:10037000A2302235BD21833ABC18833A3C11BE1904
:100380003E110335C82129110331C821BD18BD1301
:100390003E11A9193D110335D621DC2A833EA23B2B
:1003A000833A9C189D18833E1911572F833EA23320
:1003B000E721833A9C1303359D1313041D1B880406
:1003C00003351C1B833E0330E821D62AD02A833E06
:1003D000201100040335F821A0186D2FD02A9D1894
:1003E000F7219A1303359B1300046D2FD02A0004C4
:1003F000833EA23401049B190004223501049A199A
:10040000833AA018A1189E189F1802002130AA2133
:100410000304833A1B1BE80403351A1B0330F12144
:10042000833E21351522A1312F220104A018A013EB
:100430006D2FA23F1D1103311F220104572F2231BE
:1004400026221A11033126220504EA2F833EA23008
:10045000F7211B110331F7210504EA2FF7212011A1
:10046000033138220104A018A0136D2F0104572F67
:100470001D1103353D220004F92122316222833A05
:100480009E1303359F13F4041E1F03318C221F1A81
:1004900003318C2290049E1901049F190504833EA8
:1004A000201B03345922A01320116D2F2011572F28
:1004B0008C220504201F03318C220604A019060497
:1004C0006D2F8C221A11033589220604201F033157
:1004D00070220504A01905046D2F0504572F8922E9
:1004E0000104833A1F1BF40403351E1B03348922C5
:1004F0000504833E201B03348322A01320116D2F9B
:100500002011572F89220504201F0331892201045D
:10051000EA2F833A9E189F180004833E2235010477
:100520009A19A230AD22833AA0130335A113F40423
:10053000201F0331CA22211A0331CA229004A019B4
:100540000104A1190204833E201B0330CA22A01A11
:1005500020116D2F2011572FCA221B110335C722DE
:100560000104833A211BF4040335201B0334C72202
:100570000204833E201B0330C322A01A20116D2FDA
:100580002011572FC7222012C7220504EA2F833AD1
:10059000A018A1180004833EA23401049B19020094
:1005A00086380638853B053B053A0200A23F833A70
:1005B0009C189D18833E0200E82E2F11833A941E4A
:1005C00003349513833E3011833A951E0804B21309
:1005D000321B033002001511833EB419833A141103
:1005E000833EB319033CB415B315033CB415B315DE
:1005F000033CB415B3153311901934119119833A92
:10060000B21894189518833EA13108230604632379
:10061000213138230904111B3B040335101B03341B
:100620001323991864230A04111B76040335101B45
:1006300003341D239918991364230B04111B6204BE
:100640000335101B03342623020463230C04111BFF
:1006500000040335101B03342F23030463230C040D
:10066000111B9D040335101B033462230404632310
:100670000904111B3B040335101B033011230A042A
:10068000111B76040335101B03301A230B04111BB6
:1006900062040335101B033024230C04111B0004D7
:1006A0000335101B03302D230C04111B9D0403354F
:1006B000101B033036230C04111BC4040335101B1C
:1006C0000334062305049919833A481103356C2332
:1006D000C81A833EA13C0200833EA1348A23090448
:1006E000111BD9040335101B033487230504833AF7
:1006F000B113311B03300200833EA1380200030412
:10070000833AB013301B03300200833EA13C833A8E
:10071000B11802000904111BF0040335101B033447
:100720007F23833AB01802001E1103359923D02A83
:10073000020021359D23A1310F2421340F243204DE
:100740009613161B0330B723961836110335B023C2
:100750001404171B0334AE239713B723B618B7231B
:1007600017110335B523971AB723B618B613140417
:100770009813181B03349818A131C423AB2D14040B
:100780009719B618961802000204191B0330CA23E1
:10079000053ED1231912D0231711181B0330C8238B
:1007A000053A0304191B0330D723053FE023020455
:1007B000191F0331DF231711181B0330D523053B05
:1007C0000404191B0330E623853FEF230304191F9C
:1007D0000331EE231711181B0330E423853B050476
:1007E000191B0330F523063CFE230404191F0331B3
:1007F000FD231711181B0330F32306380604191BB9
:100800000334072409241711181B03340D24863CD4
:1008100002000504191F0335032486380200213025
:1008200031240604201F0331312414049613161BAF
:100830000330020096183611033526243204171BA4
:100840000334242497132D24B6182D2417110335AF
:100850002B24971A2D24B618B6131711833AB319FF
:1008600002002131A1353D240604201F03353D241B
:100870009718B618B613961898182130A233422448
:1008800019115727213047241D110331020021304F
:10089000972320115727833E2130A2365724213138
:1008A000A1355724A2375724241103355A24833AFB
:1008B00096189718833A9613033597130304171B5A
:1008C000E8040335161B0330020096189718833E80
:1008D000D02A8E3F0E3CCB3C4B3F8E188F18DA1837
:1008E000DB18D618D7180E04C5194804B42CE80430
:1008F000AF190304B019242F4B3DC13F0E048719D3
:1009000040048919051106110F3C0E3E8F388E38B0
:100910000400000003000000833EC13B5A38063348
:10092000A124B8042139833A98190B049919833EFC
:1009300006339C2404009724C304833AB719833EEA
:10094000A418051106110F3C0E3E8F3C8E3C053558
:100950008530A23AC22F192EDD2F4B39833A9618D3
:100960009718833E223C0200C619F104C319FF0404
:100970008D19C219BF048B1902000504833E201F84
:1009800003352135C524A131CE245504833A92186C
:10099000931890189118833EB5190200833A921368
:1009A000033593130304131BE8040335121B0330B0
:1009B0000200921893189013033591135504833E47
:1009C000351F0331F1240204833A111B5804033507
:1009D000101B03300625901891180304833EB51BA5
:1009E00006254D04351B033006250004833A111BF0
:1009F0003C040335101B033006254F049018911852
:100A0000833E351B0334ED244C04B5196404833A4A
:100A1000BC19BD18833E3511AF197C04B018B1194B
:100A2000B2183E2F2F113208833ABE19833E30117F
:100A3000033401080008833ABF19772E3C11833E26
:100A40009F190200833E1F11B119F004B218B117AB
:100A5000B217B21C31110F0EB21DF004B11C1F11E0
:100A60000331372592189318CF18063D0200321132
:100A7000131B03313D253111121B033449259213F9
:100A8000033593131311321B03315B251211311BF4
:100A90005B251311321B03314F251211311B033417
:100AA00061250104921B0330931A3211131B033189
:100AB0005B253111121B0334612532119319311159
:100AC00092191311B0191211AF190404033CB01597
:100AD000AF15FF08033166252F11CF194F110331D0
:100AE000020035258E3180258E3DA804811914041D
:100AF000833AA713271B03308025A718833E22388B
:100B0000833E213098250604201F03352135982582
:100B1000A13598253204833AA613261B0334A61860
:100B20003311261B833E03349725AB2D9825D02AFD
:100B30001828833E4B3C2E118A19AD34A4252D175D
:100B40008319BE173E1701002D178319833EBE1768
:100B50003E17833A0100863C063C853F053F053E33
:100B60000200922FC22FC804AF19B018A32FDD2F97
:100B7000B32F192EC13BD02AEC0490190C04911903
:100B800000046D2F833E0E388E3B2230C225223C5E
:100B90000400C62E833A1811191D0335D625010409
:100BA000981B00040330991A991BDF25833E2135D9
:100BB000DB25A131DD25A0189D18213DA13DDC2AB2
:100BC000E82DA12E8C29BD2C222D942B4B2CC22537
:100BD000833E0535F6250A04833AAE18AF132F1B62
:100BE00003300026AF18833EA23800260A04833A59
:100BF000AF18AE132E1B03300026AE18833EA23C66
:100C0000833E85340E260A04833AAC18AD132D1B9F
:100C100003300200AD18833E223902000A04833AF1
:100C2000AD18AC132C1B03300200AC18833E223DE0
:100C300002008E18C1180E11833ABC19BD183C3839
:100C40003C11833E8E190E11F70E833ABE19BF1860
:100C5000833E8E190E11833AC019C118C03B401152
:100C6000833E8E194C11833AC219C318C23A4211FD
:100C7000833ECC194111DF0E833AC419C518833E57
:100C8000C1194111EF0E833AC619C718833EC11925
:100C90000200833E1D11033502009604833AB4130B
:100CA000341B03300200B418033C833E2233033864
:100CB000833E03305D26223B5E26223F9D1A1C1296
:100CC0006B26053E053F853F063C22336926863864
:100CD0007226863C722605041C1F03317226D02A18
:100CE0002233053E1D110331020020115727C11880
:100CF000C2183C113D1D03359C26C018C013BD37DA
:100D00008526033CBC14BD147E26033CC114C214CA
:100D10003D113F1B03318E263C113E1B03309826AC
:100D20003C11BE1B3D110330BF1ABF1B4138033CB1
:100D3000BD15BC15C01285264211BD194111BC1943
:100D40000200833E8531BA261404833AAA18AB13F5
:100D50002B1B03300200AB18833E2130B326A23F89
:100D6000833A9C189D18833E213CA23E833A9A18F0
:100D70009B1802001404833AAB18AA132A1B0330F1
:100D80000200AA18833E2138A23E0200833A35129F
:100D9000CA26B518833E2512E426A518833A3911D0
:100DA000092FB31933110335D926C804833A98198A
:100DB0009918833E2131A135DF2621320200C80473
:100DC000833A98199918020025160200A518020006
:100DD0001504833EDA192311DB195A380F3DDA382E
:100DE000833EDA30F5260400F0265911B119F004DB
:100DF000B218B117B217B21C31110F0EB21DF004A8
:100E0000B11C58170F0EB11D3211B0193111AF19A5
:100E10000200833EB119B2190F04B21C31170F0E34
:100E2000B0190F04B01C3011321EAF190F0D033171
:100E3000000132311D2721391E27213D3230222762
:100E4000A1390101A13D01010104AF1B00040330E0
:100E5000B01AB01B2F162F27301303350200B1181C
:100E6000B2180000833EB1130335B2130004321BE5
:100E700004040335311B033424273127B318B41875
:100E80002F3048273111B31E0334B4133211B41E6E
:100E9000033CB114B214033CB015AF152F11301D33
:100EA000033140273411B0193311AF190200AF19C3
:100EB000D02A2F110331053E02042F1B0334053FB6
:100EC00003042F1B0334853F04042F1B0334063C0B
:100ED00005042F1B0334863C0200833EAF192F11FB
:100EE000033174279F18020007042F1B03307A2751
:100EF0000604AF192F1101088419D02F9F19020081
:100F0000833EAA18213088272A39A1308827AA3899
:100F10000F04AA1C2A110F0DA8192817F00E2A1D5C
:100F2000A91902003F0484198018841A0F04041FB1
:100F300003319427DF0484198018841A8F04041F56
:100F4000033502009C27B118B2183211301B03314F
:100F5000AB2731112F1B033002000400833EB11375
:100F60000335B213A527C13F4004D1196804CD1938
:100F70007B04CE19CF184504CC194B3CCC3BCB3C61
:100F8000CB180200D618D718D00485190304861987
:100F90000E04C5190804B42C871889188E3C020069
:100FA00007048A1904118413821E0001000119012B
:100FB00032014401570169017C012004D619D71878
:100FC0001504DA190804A319DB195A386404AF1997
:100FD000B0182427AF191D110331020004049D1914
:100FE0002F119C19223F833AB418020055010101C8
:100FF00032010000000000000000000000000000BE
:00000001FF
